:020000040800F2
:1000000000000220091C00086D1B00086F1B00087F
:10001000711B0008731B0008751B0008000000001E
:10002000000000000000000000000000771B000836
:10003000791B0008000000007B1B00087D1B0008E6
:10004000591C0008591C0008591C0008591C0008BC
:10005000591C0008591C0008591C0008591C0008AC
:10006000591C0008591C0008591C0008591C00089C
:10007000591C0008591C0008591C0008591C00088C
:10008000591C0008591C0008591C0008591C00087C
:10009000591C0008851B0008951B0008591C000806
:1000A000591C0008591C0008591C0008591C00085C
:1000B000591C0008591C0008591C0008591C00084C
:1000C000591C0008591C0008591C0008591C00083C
:1000D000591C0008591C0008591C0008591C00082C
:1000E000591C0008591C0008591C0008591C00081C
:1000F000591C0008591C0008591C0008591C00080C
:10010000591C0008591C0008591C0008591C0008FB
:10011000591C0008591C0008591C0008591C0008EB
:10012000591C0008591C0008591C0008591C0008DB
:10013000591C0008591C0008591C0008591C0008CB
:10014000591C0008591C0008591C0008591C0008BB
:10015000591C0008591C0008591C0008591C0008AB
:10016000591C0008591C0008591C0008591C00089B
:10017000591C0008591C0008591C0008591C00088B
:10018000591C0008591C0008591C0008591C00087B
:10019000591C000800000000A51B0008B51B000842
:1001A000C51B0008D51B0008591C0008591C000875
:1001B000591C0008591C0008591C0008591C00084B
:1001C000591C0008591C0008591C0008591C00083B
:0801D000591C0008591C00082D
:1001E00010B5054C237833B9044B13B10448AFF371
:1001F00000800123237010BD440400200000000093
:10020000E035000808B5034B1BB103490348AFF3C1
:10021000008008BD0000000048040020E035000810
:1002200003685A004CBF43F0004323F000431844D6
:10023000704700BF2DE9F84329B34F1E0446154609
:100240003E464FF0000808EB060101EBD171491062
:1002500004EBC1094846FFF7E3FF0346C800083036
:100260008F42204409D0AB4209D8FFF7D9FF0138AB
:10027000A8420AD201F10108E5E7AB4205D9884559
:1002800001D04E1EDFE74FF000094846BDE8F88375
:10029000012807D0022807D0044B00280CBF1846BD
:1002A00000207047024870470248704769090008FB
:1002B0006D0900087109000830B5234B83B004466E
:1002C0008D1E3BB301A92846AFF30080E8B1019928
:1002D0002A46FFF7AFFF0146B8B1FFF7A1FF4B6811
:1002E000A064012B2CD0002B01F1040024DBFFF7CC
:1002F00097FF0023C4E913030368002B11DBFFF70A
:100300008FFF2061002003B030BD0023092023614E
:1003100003B030BD0D4B0E49C91AC91018460191E2
:10032000D6E7C3F30360FFF7B3FF0028206114BFD3
:100330000020092003B030BD0123C4E91303DBE72B
:10034000002323610520DEE700000000503600088E
:10035000483700080368DA0710B5044606D49B073F
:1003600000F1480009D500F05BFC2368590709D566
:100370001A070ED5DB0613D510BD00F049FC236823
:100380005907F5D404F1D00000F052FC23681A0795
:10039000F0D404F5A87000F053FC2368DB06EBD41E
:1003A00004F5E870BDE8104000F08EBC09207047ED
:1003B0000346006800B11844704700BF704700BF93
:1003C00070B504460E46316C2046FFF775FF0546B2
:1003D00088B9326C62612369324621460120984710
:1003E0000828F0D0072806D12846316CFFF7E6FF31
:1003F000301D00F001FC02F05BFF00BF2DE9F0476B
:100400000D1DD0F80C80D0F81890074614460FCD7B
:10041000ADF5727D0DF10C0CACE80F000FCDACE822
:100420000F000FCDACE80F0095E80F0002AE4FF0C3
:10043000000E8CE80F00C6F800E020E0336C7B6112
:100440004FF4F07231467AA800F054FE3B697AAA64
:10045000394650469847889B73642146CDE9006928
:1004600005463B463A460120C0470446E0B94FF4F2
:10047000F0727AA9304600F03DFE082D1AD1316C99
:100480003846FFF719FF09345FFA84FA0546002859
:10049000D4D0B36B73643A46CDE900693B464AF069
:1004A00010010120C04700B1092528460DF5727DD5
:1004B000BDE8F087072DF7D12046316CFFF77EFFAE
:1004C00003A800F099FB00BF406C7047F0B5CB6B00
:1004D0000B6401F1040C0E460546BCE80F00F9B0B0
:1004E00001AC0FC4BCE80F000FC4BCE80F000FC480
:1004F0009CE80F004FF0FF3784E80F00009706E0FC
:100500002B696A46294698470828044608D110995D
:100510002846FFF7D1FE0028F2D0092079B0F0BDBF
:100520006846FFF717FF062CF7D131462846FFF73C
:1005300047FF00BFC160D96B826119640022194670
:100540005CE700BF70B5C66843690B64AEB9036968
:100550000A4604460D46014602209847072805D062
:1005600008280FD129462046FFF72AFF3046296C7C
:10057000FFF724FF281D00F03FFB0122FFF73EFF9D
:1005800002F096FE02F094FEC2681AB1CA6B0A64C9
:10059000002233E79AE700BF704700BF8368014637
:1005A0000BB1012018477047012912D009D873B93F
:1005B0000F2A0CD800EB820218465368009A136089
:1005C00070470339012994BF01200220704702209F
:1005D00070470846704700BF00B585B00A46002343
:1005E00003A900911946FFF7DFFF039805B05DF8F6
:1005F00004FB00BF012912D009D873B90F2A0CD807
:1006000000EB8200009A1268426018467047033976
:10061000012994BF0120022070470220704708463C
:10062000704700BF10B584B0002303AC0392009460
:100630000A461946FFF7DEFF04B010BD70B5D36B54
:10064000136402F1040C05460C46BCE80F00ADF53E
:100650000E7D0DF15C0EAEE80F00BCE80F00AEE8B9
:100660000F00BCE80F00AEE80F009CE80F004FF051
:10067000FF368EE80F00169610E0FFF7D3FF2146F5
:1006800016A8A847034616AA6946082083B9049B02
:100690009847052806460CD0092809D026996846AF
:1006A000FFF70AFE03466A460C2116A8002BE4D089
:1006B000092616A8FFF74EFE30460DF50E7D70BDDB
:1006C0002DE9F04FCC6C89B01E4654F8043B0694DB
:1006D0000D46174600F00308002E79D01A0C1B04B3
:1006E00005938DF81D200223D2B204EB82048DF80D
:1006F0001C302B6DB8F1020F08BFAC6B13F0010377
:100700000CD005A9384600F079FB18B9082009B0CB
:10071000BDE8F08F092009B0BDE8F08FD4F800A043
:10072000BAF1000FEDD0019300F008030293022EFE
:100730004AD0B4F800A0B4F802900434AB6C29F0AD
:10074000010B0F2138469B44FFF746FF834539D8FC
:100750002AF001039B44834594BF002001204FEA07
:10076000490303F002030AF0010A43EA0A03012BDA
:1007700049D0022B32D0002BCCD1B8F1000F02D0DF
:10078000002840F0CD800434D4F800A0BAF1000F66
:10079000CDD105A9384600F031FB0028BAD1019B24
:1007A000002BB3D00F213846FFF716FF0E2102466B
:1007B0003846FFF737FF38466A4A0F21FFF732FF06
:1007C0000720A8E70020CAE7D4F804900834B5E76A
:1007D0001B0205930323ADF81C308AE7236823F03E
:1007E000004BB8F1000F45D128B1029A002A5CD025
:1007F000BBF1000F74D0002B00DA04340BF1010BB5
:1008000004EB8B04C0E7B8F1000F19D1B0B16368F5
:100810002268991C4FEAD2723FF47CAF05F158016F
:100820000133049100F09080201DFFF7C1FD04AB5F
:1008300001462846AFF3008000285BD10834A3E7C7
:100840000D213846D5F82090FFF7C6FE8145F5D139
:10085000AB6A9C42F2D12046FFF7E2FC0F21024630
:100860003846FFF7DFFE38462A460021FFF7DAFE5A
:10087000072050E70D213846D5F82090FFF7ACFE51
:10088000814501D02368B6E7AB6A9C42FAD10423C4
:100890000022C5E90B23E318C5F828B06B63236871
:1008A000002B59DB01230193A8E705F15803CDF88C
:1008B0000C8004F1040AB04691461E460EE05046F4
:1008C0000496FFF775FD0022014604AB284609F1A6
:1008D00001090AF1040AAFF30080E0B9D945EED16D
:1008E0000D213846FFF778FE049BAC62C5E908038A
:1008F000062010E781460D213846FFF76DFEB9F15D
:10090000020F286225D12B46049A43F82C2F6B62E4
:10091000AC620620FFE646462368DDF80C806AE7F5
:100920002046FFF77DFC04340246AC63284614469B
:10093000AFF3008000283FF4EDAE384622460F2189
:10094000FFF770FE0720E6E60D213846FFF744FE6C
:100950002862049B6B62DBE70BF1010004EB800073
:100960007AE700BF000000000023A9E60123A7E604
:100970000223A5E62DE9F0430646C3B015461C4602
:10098000042900F2BF80DFE801F09E57BD2D03006F
:10099000002C40F0B780102A00F2B4800368D8061B
:1009A00000F1F98020AF384600F098F9B46B394671
:1009B00000234FF0010C0CFA03F22A42204603F107
:1009C000010303D050F8042B0A600446042B01F104
:1009D0000401F0D13846B46300F076F9002043B04A
:1009E000BDE8F083032C40F08D8094B204EB1243F9
:1009F000102B4FEA124500F2858003681F0700F1B3
:100A0000D28020AF384600F03DF9B26B07EBC5014C
:100A100054B10B46D01A01EBC401E4001D5843F851
:100A2000045B8B42FAD122443846B26300F008F9E5
:100A3000002043B0BDE8F083012C4FEA124895B284
:100A40005CD0052C5ED108EB0509B9F1200F59D80F
:100A5000B8F10F0F79D9A946002D40F08A80B36B09
:100A60006DB320AF4FF0000907EBC807043F03EB5D
:100A7000C50553F8041B47F8041FAB42F9D1B9F17F
:100A8000000F0FD06F464146102938BF102107EBE9
:100A9000C101843903EBC90553F8040B41F8040F75
:100AA000AB42F9D1012C00F08680B8F10F0FB5638D
:100AB00047D9B9F1000F02D0684600F0B9F800201C
:100AC00043B0BDE8F083ECB9806B23461FFA82FC8B
:100AD0000124371D04FA03F212EA0C0F014604D078
:100AE00051F8042B47F8232008460133102BF1D18D
:100AF00015F40055E3D1B063284604E008EB050384
:100B0000102B03D9022043B0BDE8F083B8F10F0FDA
:100B1000F8D83368DA0706D5304623F0030340F8E7
:100B2000483B00F079F820AF384600F075F8B36B19
:100B3000002D97D11D460435B563384600F068F89E
:100B4000BDE720A800F06CF8B3E7B9F1100F40D969
:100B5000A9F110093368D90708D523F001033046FD
:100B600043F0020340F8483B00F05EF8B9F1000F93
:100B700032D033685A0720D4B8F10F0F25D96F4609
:100B80003846C8F1100500F057F8002DB36B7FF719
:100B90007AAF20AF68E723F01003336006F5E87002
:100BA00000F09CF8FEE623F00803036000F5A8704F
:100BB00000F068F825E720AFBDE7304623F00403D6
:100BC00040F8D03B00F038F8D6E720A800F02CF829
:100BD000D5E74FF00009BDE7B8F10F0F3FF63FAF83
:100BE00020AF384600F020F8B36B002D7FF43AAF09
:100BF000384600F015F862E700F1340191E838005A
:100C00009C46A6464CF8045D90E8FF0FE54600BD03
:100C100090EC210B704700BF80EC210B704700BFA8
:100C200090EC200B704700BF80EC200B704700BF9A
:100C3000D0EC200B704700BFC0EC200B704700BF0A
:100C4000F0EC0201F0EC0211F0EC0221F0EC0231C8
:100C5000F0EC0241F0EC0251F0EC0261F0EC0271B8
:100C6000F0EC0281F0EC0291F0EC02A1F0EC02B1A8
:100C7000F0EC02C1F0EC02D1F0EC02E1F0EC02F198
:100C8000704700BFE0EC0201E0EC0211E0EC022151
:100C9000E0EC0231E0EC0241E0EC0251E0EC0261F8
:100CA000E0EC0271E0EC0281E0EC0291E0EC02A1E8
:100CB000E0EC02B1E0EC02C1E0EC02D1E0EC02E1D8
:100CC000E0EC02F1704700BFB0FC0181B0FC019183
:100CD000B0FC01A1B0FC01B1704700BFA0FC0181D4
:100CE000A0FC0191A0FC01A1A0FC01B1704700BFD4
:100CF000EC4600B52DE900502DE9FF1F4FF0000331
:100D00002DE90C0001A9FFF7E1FBDDF840E012B08E
:100D1000704700BFEC4600B52DE900502DE9FF1FDC
:100D20004FF000032DE90C0001A9FFF70BFCDDF8E3
:100D300040E012B0704700BFEC4600B52DE900500E
:100D40002DE9FF1F4FF000032DE90C0001A9FFF76B
:100D50001BFCDDF840E012B0704700BFEC4600B568
:100D60002DE900502DE9FF1F4FF000032DE90C0085
:100D700001ABFFF7DFFBDDF840E012B0704700BFCA
:100D8000EC4600B52DE900502DE9FF1F4FF00003A0
:100D90002DE90C0001AAFFF751FCDDF840E012B08C
:100DA000704700BF027A03467AB9427AA2B141681D
:100DB000013A10B44272086803220C1D1A72020232
:100DC0005C60000E10BC1A6070470068013A1A722D
:100DD00002021A60000E7047B020704700B585B05F
:100DE000002303AA009219460C22FFF7DDFB0398AB
:100DF00005B05DF804FB00BFF0E700BF2DE9F0434C
:100E0000054685B00E464FF000083046FFF7CAFF92
:100E1000B028044600F0BA80070620D500F0F003A1
:100E2000802B4DD0902B36D0A02B60D0B02B74D01F
:100E3000C02B00F08B8000F0F803D02B0BD100F01A
:100E400007020132052342F4002201212846FFF760
:100E500091FD0028D9D0092005B0BDE8F0838300BA
:100E6000DBB21F1D0DF10C0900231946CDF80090CF
:100E70000D222846FFF798FB039BCDF800906006F3
:100E80004CBFDF1BFF1800230D221946284603978D
:100E9000FFF7B0FBB9E700F00D030D2BDBD003AF7C
:100EA000002300F00F02194600972846FFF77CFB4D
:100EB000002300970D2219462846FFF79BFBA4E765
:100EC0003046FFF76FFF24022043B0F5004FC2D039
:100ED00004010023A2B219462846FFF74BFD002863
:100EE000B9D114F4004F18BF4FF001088DE7C24389
:100EF00002F007034FF47F621A41010702F47F6298
:100F00004FF0000348BF42F4804219462846FFF7DD
:100F100031FD00283FF479AF9DE7B1283BD0B228DE
:100F200000F09380B32841D000F0FC03B42B92D0A2
:100F300000F007020132012342F40022194628463C
:100F4000FFF718FD00283FF460AF84E7C6284AD0B9
:100F5000C72854D000F0F803C02B63D0C82868D04D
:100F6000C9287FF478AF3046FFF71CFF020300F07A
:100F70000F0002F4702201300243012105232846AC
:100F8000FFF7F8FC00283FF440AF64E7B8F1000F2A
:100F900018D0002060E73046FFF704FF0246002823
:100FA0003FF459AF10F0F003C8D054E73046FFF7D4
:100FB000F9FE020300F00F03013302F470221A431A
:100FC0000123BBE703AC43460E224146009428466A
:100FD000FFF7EAFA009443460F2241462846FFF7FE
:100FE00009FB404638E73046FFF7DCFE020300F01D
:100FF0000F03013302F470221A4303239EE73046A5
:10100000FFF7D0FE024600283FF425AF10F0F003B2
:101010007FF421AF04212846FFF7ACFC00283FF401
:10102000F4AE18E700F00F020132032342F420224D
:1010300084E73046FFF7B6FE00F0F00200F00F0341
:101040001032013343EA023297E700230DF10C0915
:101050000D221946CDF800902846FFF7A5FA304634
:10106000FFF7A0FE02064FF002040CD5039B00F030
:101070007F00A040184403903046FFF793FE03061C
:1010800004F10704F2D4039BCDF8009000F07F0236
:10109000A24003F501731A440023039219460D225E
:1010A0002846FFF7A7FAB0E610B5C26C536884B0C3
:1010B0004FF0030C08321C0208461B0E01A90194D4
:1010C00002928DF80CC08DF80D30FFF797FE04B03A
:1010D00010BD00BF08B5FFF78FFE806C08BD00BFD4
:1010E00008B5FFF789FEC06CC379023300EB8300BB
:1010F00008BD00BF844641EA000313F003036DD12D
:10110000403A41D351F8043B40F8043B51F8043BCA
:1011100040F8043B51F8043B40F8043B51F8043BD1
:1011200040F8043B51F8043B40F8043B51F8043BC1
:1011300040F8043B51F8043B40F8043B51F8043BB1
:1011400040F8043B51F8043B40F8043B51F8043BA1
:1011500040F8043B51F8043B40F8043B51F8043B91
:1011600040F8043B51F8043B40F8043B51F8043B81
:1011700040F8043B51F8043B40F8043B51F8043B71
:1011800040F8043B403ABDD2303211D351F8043B11
:1011900040F8043B51F8043B40F8043B51F8043B51
:1011A00040F8043B51F8043B40F8043B103AEDD2C0
:1011B0000C3205D351F8043B40F8043B043AF9D211
:1011C000043208D0D2071CBF11F8013B00F8013BE4
:1011D00001D30B8803806046704700BF082A13D3F1
:1011E0008B078DD010F003038AD0C3F10403D21A09
:1011F000DB071CBF11F8013B00F8013B80D331F83D
:10120000023B20F8023B7BE7043AD9D3013A11F8BC
:10121000013B00F8013BF9D20B7803704B78437027
:101220008B7883706046704700000000000000006B
:1012300000000000000000000000000000000000AE
:10124000A2EB0300704700BF02780B78012A28BF89
:101250009A42F5D16DE9044540EA0104CDE90267FF
:101260006FF0000C4FEA447212B380EA010414F0EC
:10127000070F6AD100F0070420F0070004F003050F
:1012800021F007014FEAC505F0E8042314F0040F2C
:10129000F1E804670CFA05F462EA040266EA04065F
:1012A0000AD063EA0403624667EA0407664603E07D
:1012B000F0E80423F1E8046782FA4CF582EA0604B8
:1012C000A4FA8CF46CBB83FA4CF583EA0705A5FA03
:1012D0008CF595B950E9022351E9026782FA4CF581
:1012E00082EA0604A4FA8CF483FA4CF583EA070533
:1012F000A5FA8CF52543DBD09CB92DBAB5FA85F457
:1013000024F0070427FA04F1DDE9026723FA04F365
:1013100003F0FF0001F0FF01FDE80445A0EB010030
:10132000704724BAB4FA84F424F0070426FA04F1CE
:10133000DDE9026722FA04F202F0FF0001F0FF018A
:10134000FDE80445A0EB0100704714F0030F3CD109
:1013500010F0030428D150F8082B51F8083B82FA0A
:101360004CF582EA0305A5FA8CF55DB950F8042C1A
:1013700051F8043C82FA4CF582EA0305A5FA8CF593
:10138000002DE8D02DBAB5FA85F424F0070423FA2D
:1013900004F122FA04F202F0FF0001F0FF01FDE87F
:1013A0000445A0EB010070474FEAC40420F003009D
:1013B00050F8082B21F0030151F8083B0CFA04F413
:1013C00062EA040263EA0403C9E710F003041AD0D6
:1013D000A1EB040120F00300E40750F8042B06D031
:1013E0000FD28B785FFAA2F4E41A06D12BB1CB7836
:1013F0005FFAB2F4E41A00D11BB920465DF8104B35
:10140000704701F1040150F8042BCC0721F00301CF
:1014100051F8043B48D824D222F07F4482FA4CF59C
:1014200094EA1325A5FA8CF50AD165B951F8043B65
:1014300084EA0204B4EB036F0ED150F8042BEBE7FF
:101440004FEA132355E035F07F454DD10878FDE88C
:101450000445C0F1000070474FEA126203F0FF0339
:1014600047E002EA1C4482FA4CF594EA1345A5FAD7
:101470008CF50AD165B951F8043B84EA0204B4EB57
:10148000034F0CD150F8042BEBE74FEA134330E045
:1014900015EA1C4528D10B884FEA124229E04FEA91
:1014A000124203EA1C4324E002F0FF0482FA4CF5E6
:1014B00094EA1365A5FA8CF50AD165B951F8043B95
:1014C00084EA0204B4EB032F09D150F8042BEBE7B4
:1014D0004FEA13630DE015F0FF0F05D10B684FEADB
:1014E000122223F07F4304E04FF00000FDE80445A2
:1014F000704712BA1BBA82FA4CF482EA0304A4FAC7
:101500008CF5B5FA85F402FA04F203FA04F34FEA13
:101510001260FDE80445A0EB13607047016070475E
:1015200008B50023436083600223C3600123036185
:1015300041618261014651F8040B00F0C9FD00B120
:10154000012008BD10B50446006800F0F1FD00223E
:101550000121206800F02CFE002010BD00B58BB0EA
:101560000193002302930393049205930693079338
:10157000089309930A4601A9006800F0F0FD00B144
:1015800001200BB05DF804FB012800D0704708B5BE
:101590004FF6FF73994200D008BD0A490A4800F08F
:1015A00076F80A490A4800F072F80A490A48FFF733
:1015B000B5FF0A490A48FFF7B1FF0A490A48FFF791
:1015C000ADFFE9E7F8350008B40400200036000854
:1015D000C0040020D0040020600400203405002056
:1015E0007C040020980500209804002070B51E4C53
:1015F000002211462046FFF793FF2046FFF7A2FF87
:101600001A4D4FF49173032229462046FFF7A6FF97
:10161000174E304600F046F8164C002201212046B5
:10162000FFF77EFF2046FFF78DFF4FF491730322F3
:1016300029462046FFF792FF304600F033F80E4C63
:10164000002202212046FFF76BFF2046FFF77AFFBA
:101650004FF49173032229462046FFF77FFF074886
:1016600000F020F8C3E700BF600400200000002065
:10167000B40400207C04002098040020C004002052
:1016800008B54FF6FF710120FFF77EFF08BD10B5CA
:101690000446002303604360038101F0D3FE20462B
:1016A00010BD000010B504461849FFF7CDFD28B164
:1016B00017492046FFF7C8FDA0B110BD154C4FF4E7
:1016C0008051204600F0C1FF4FF4FA7000F010FB8B
:1016D0004FF48051204600F0B8FF4FF4FA7000F04C
:1016E00007FBEAE70B4C4FF40051204600F0ADFF3A
:1016F0004FF4FA7000F0FCFA4FF40051204600F06D
:10170000A4FF4FF4FA7000F0F3FAD6E7F8350008BA
:10171000003600080010004810B51148114B036056
:10172000002343608360C3600374437483740422A2
:101730004261102181613F24C4610162426205223D
:1017400082620E21C16202631C224263082282630C
:10175000C36300F0D3FB00B910BD00F0A1F9FBE7B3
:10176000D00400200064004010B51148114B036004
:10177000002343608360C360037443748374042252
:101780004261102181613F24C461016242620522ED
:1017900082620E21C16202631C22426308228263BC
:1017A000C36300F0ABFB00B910BD00F079F9FBE7B3
:1017B000340500200068004010B51148114B03604B
:1017C000002343608360C360037443748374042202
:1017D0004261102181613F24C4610162426205229D
:1017E00082620E21C16202631C224263082282636C
:1017F000C36300F083FB00B910BD00F051F9FBE7B3
:1018000098050020006C004010B5A0B004460021EF
:101810001B911C911D911E911F91542206A801F04D
:1018200079FD2368714A934208D0714A93424DD0A2
:10183000704A934200F0918020B010BD4FF4805365
:1018400006934FF00073149306A801F075FB78BB64
:10185000694A136801331360012B2CD0674BDA6C93
:1018600042F00102DA64DB6C03F001030193019B97
:101870004FF4C0531B9302231C9300241D941E9409
:1018800009231F931BA94FF0904000F0EBFD224667
:101890002146152000F052FA152000F087FA224662
:1018A0002146162000F04AFA162000F07FFAC3E71E
:1018B00000F0F6F8CCE7514B9A6D42F000729A6551
:1018C0009B6D03F000730093009BC7E74FF48053B8
:1018D00006934FF00073149306A801F02DFB70BB24
:1018E000454A136801331360012B2BD0434BDA6C4C
:1018F00042F00202DA64DB6C03F002030393039B01
:101900004FF440531B9302231C9300241D941E94F8
:1019100009231F931BA93A4800F0A4FD2246214643
:10192000562000F00BFA562000F040FA22462146DD
:10193000572000F003FA572000F038FA7CE700F057
:10194000AFF8CDE72D4B9A6D42F000729A659B6D12
:1019500003F000730293029BC8E74FF48053069391
:101960004FF00073149306A801F0E6FA78BB224A00
:10197000136801331360012B2CD0204BDA6C42F03A
:101980000102DA64DB6C03F001030593059B4FF45D
:1019900001431B9302231C9300241D941E940B23CC
:1019A0001F931BA94FF0904000F05CFD224621469A
:1019B000582000F0C3F9582000F0F8F922462146DB
:1019C000592000F0BBF9592000F0F0F934E700F09D
:1019D00067F8CCE7094B9A6D42F000729A659B6DEF
:1019E00003F000730493049BC7E700BF006400404A
:1019F00000680040006C0040CC0400200010024051
:101A00000004004830B58BB0002405940694079478
:101A100008940994204BDA6C42F00402DA64DA6C20
:101A200002F004020092009ADA6C42F02002DA64BA
:101A3000DA6C02F020020192019ADA6C42F0100294
:101A4000DA64DA6C02F010020292029ADA6C42F066
:101A50000202DA64DA6C02F002020392039ADA6C90
:101A600042F00102DA64DB6C03F001030493049B8F
:101A70000A4D22464FF44051284600F0E1FD4FF454
:101A800040530593012306930794089405A928461B
:101A900000F0E8FC0BB030BD001002400010004820
:101AA00072B6FEE700B595B03822002106A801F015
:101AB00031FC00200190029003900490059000F00A
:101AC000CDFD012306934FF48033079302230D933A
:101AD00003220E920F9214221092119312931393D9
:101AE00006A800F075FE80B90F230193032302932B
:101AF000002303930493059304210DEB010001F0EF
:101B00001FF920B915B05DF804FBFFF7C9FFFFF717
:101B1000C7FF08B500F0CAF8FFF7C4FFFFF772FF70
:101B2000FFF7FAFDFFF720FEFFF746FEFFF75EFD29
:101B3000FEE7000000B583B00B4B1A6E42F00102C5
:101B40001A661A6E02F001020092009A9A6D42F033
:101B500080529A659B6D03F080530193019B00F0C6
:101B600003FE03B05DF804FB00100240FEE7FEE751
:101B7000FEE7FEE7FEE770477047704708B500F0E4
:101B8000A5F808BD08B5024800F0A0FB08BD00BFDD
:101B9000D004002008B5024800F098FB08BD00BF43
:101BA000D004002008B5024800F090FB08BD00BF3B
:101BB0003405002008B5024800F088FB08BD00BFCE
:101BC0003405002008B5024800F080FB08BD00BFC6
:101BD0009805002008B5024800F078FB08BD00BF5A
:101BE000980500200120704708B501F069FB162315
:101BF00003604FF0FF3008BD08B54FF0FF31FFF72D
:101C0000F3FFFEE7704700000D4885460D480E497A
:101C10000E4A002302E0D458C4500433C4188C4246
:101C2000F9D30B4A0B4C002301E013600432A242AB
:101C3000FBD3FFF7E7FF01F049FBFFF76AFFFEE781
:101C40000000022000000020440400205837000853
:101C50004404002008060020FEE70000104B1B682B
:101C60000BB90120704710B504464FF47A70B0FBF1
:101C7000F3F30C4A1068B0FBF3F000F0A5F868B974
:101C80000F2C01D901200AE0002221464FF0FF303D
:101C900000F054F8044B1C60002000E0012010BD4F
:101CA00008000020040000200C00002010B50320D4
:101CB00000F032F80F20FFF7D1FF10B101242046C9
:101CC00010BD0446FFF736FFF9E70000034A13682A
:101CD000034909680B441360704700BFFC050020EE
:101CE00008000020014B1868704700BFFC05002069
:101CF00038B50446FFF7F6FF0546B4F1FF3F02D0C2
:101D0000044B1B681C44FFF7EDFF401BA042FAD3B5
:101D100038BD00BF08000020074AD36823F4E06301
:101D20001B041B0C000200F4E060034343F0BF639C
:101D300043F40033D360704700ED00E000B5194B69
:101D4000DB68C3F30223C3F1070CBCF1040F28BF07
:101D50004FF0040C03F1040EBEF1060F18D9033B3B
:101D60004FF0FF3E0EFA0CFC21EA0C0199400EFAEE
:101D700003F322EA0303194300280BDB0901C9B26C
:101D800000F1604000F5614080F800135DF804FB4D
:101D90000023E5E700F00F000901C9B2024B195416
:101DA000F4E700BF00ED00E014ED00E0002807DBE1
:101DB00000F01F02400901239340024A42F82030FC
:101DC000704700BF00E100E00138B0F1807F0BD226
:101DD0004FF0E0235861054AF02182F823100020DB
:101DE000986107221A6170470120704700ED00E0FA
:101DF00002681D4B9A422AD01C491D4B9A4228D09A
:101E00000164D2F8803023F4F813D0F834C043EAE8
:101E10000C43C2F8803001F1700343640268D2F8C9
:101E2000803023F07063D0F838C043EA0C63C2F806
:101E3000803001F1B003836401F5C473C36401F51C
:101E40001873036501F51E7343650B4607E00949E6
:101E5000D3E701F5D461D3E7002243F8042B01F561
:101E600054729A42F8D870470068004000A40040BD
:101E7000006C004050A7004070B54C68E4B90D6993
:101E80008C6825430C6845EA8445CC690E6A44EAAF
:101E900006648E6934434E693443CE683443406DE2
:101EA00003EBC30300EBC30E40F83350CEF80440FD
:101EB0000EF1080E002019E00C698D6825430C68AE
:101EC000254345F08045E0E702EB000C9CF8034019
:101ED0009CF802301B0443EA04639CF8014043EA87
:101EE0000423145C23434EF8043B0430CB89024C9A
:101EF000E35C8342E8D870BD18360008002800F083
:101F0000E38038B5044690F85C30D3B12268936919
:101F100023F010039361FFF7E5FE054623689A69F5
:101F200012F0080F12D0FFF7DDFE401B0A28F5D98A
:101F3000236E43F001032366032384F85C30012001
:101F400038BD80F85D30FFF75FFCDFE79A6942F04B
:101F500001029A61FFF7C6FE054623689A6912F0EE
:101F6000010F0DD1FFF7BEFE401B0A28F5D9236EE5
:101F700043F001032366032384F85C300120DFE78C
:101F80009A6942F002029A612268504B9A4242D00A
:101F9000237C012B45D02268936943F04003936171
:101FA000637C012B43D02268936923F480439361BF
:101FB000A37C012B41D02268936943F48053936141
:101FC0002268936923F44073A1680B4393612268EC
:101FD000936923F0A40393612268136923F010032B
:101FE0001361E368012B2ED0002B31D0022B54D08B
:101FF0002268936943F0800393612268136943F078
:1020000010031361E368032B22D12268936943F024
:10201000200393611CE06268A3F58063C3F8002588
:10202000B6E72268936923F040039361B8E722681A
:10203000936943F480439361BAE72268936923F478
:1020400080539361BCE72268936943F00403936172
:10205000A3695A1EE369013B1B0243EA4263226AF9
:10206000013A13436269013A216843EA0243CB61B2
:10207000A368B3F5407F16D02268D2F8C030E16B78
:102080000B43C2F8C0302046FFF7B2FE0020A06527
:102090002066012384F85C3052E72268936943F09C
:1020A00020039361D4E7A36A013BE26A013A43EA61
:1020B0000223226B013A43EA0213626A013A216861
:1020C00043EA0243CB60D7E7012070470064004039
:1020D00090F85C30013BDBB2012B05D9036E43F075
:1020E00002030366012070470B687BB98A68CB68DE
:1020F000DB0643EA82730A6943EA02434A691343EF
:10210000026C496842F8213000207047CA680B69A8
:1021100043EA42724B69D1F808C043EA8C73406CC1
:10212000496800EBC10C40F83120CCF80430EBE7F3
:1021300090F85C30DBB2012B05D0036E43F0040352
:10214000036601207047022380F85C3002689369BF
:1021500023F001039361002303661846704738B5E6
:10216000044690F85C30DBB2022B1BD10368D3F835
:10217000C40010F4001F05D0236E43F400732366DF
:10218000012014E0D3F8C450C5F301452B46204686
:10219000FFF772FE22680123AB40C2F8CC30A36582
:1021A000002004E0036E43F008030366012038BDFD
:1021B00090F85C30013BDBB2012B05D9036E43F094
:1021C000020303660120704770B40468A36D11F028
:1021D000070602D013F0010F23D011F0380F02D000
:1021E00013F0020F1DD011F4E07F02D013F0040FA2
:1021F00017D011F4F05F02D013F0080F11D011F4D2
:10220000604F02D013F0100F0BD011F4403F02D0FA
:1022100013F0200F05D011F47C0F06D013F0400FFF
:1022200003D1E56D45F00105E56516B113F0010F29
:1022300023D111F0380F02D013F0020F1DD111F489
:10224000E07F02D013F0040F17D111F4F05F02D039
:1022500013F0080F11D111F4604F02D013F0100FDA
:102260000BD111F4403F02D013F0200F05D111F42F
:102270007C0F07D013F0400F04D00468E36D43F0E7
:102280000203E36511F0800F05D00468D4F8DC3058
:102290001343C4F8DC3011F4807F05D00468D4F80F
:1022A000E0301A43C4F8E0200268536D19435165C9
:1022B000002070BC70477047704770477047704788
:1022C0007047704770477047704770472DE9F84373
:1022D000044603681A6D02F4E0595A6D09EA0209CE
:1022E0001A6D02F007085A6D08EA02081F6D07F020
:1022F00038075A6D17401D6D05F471055A6D15406C
:102300001E6D06F460265A6D16401A6D12F0400FCD
:1023100003D05A6D12F0400F51D123681A6D12F498
:10232000807F03D05A6D12F4807F4DD1B9F1000F38
:1023300056D1B8F1000F5BD1002F61D123681A6D1F
:1023400012F4007F03D05A6D12F4007F5FD123682E
:102350001A6D12F0800F03D05A6D12F0800F5DD10C
:1023600023681A6D12F4005F03D05A6D12F4005FF7
:102370005FD123681A6D12F4004F03D05A6D12F426
:10238000004F5DD123681A6D12F4804F0AD05A6D48
:1023900012F4804F06D04FF480421A65236E43F04A
:1023A00080032366002E52D125B123681D65236E5C
:1023B0001D432566236E002B50D1BDE8F8834022D3
:1023C0001A65FFF780FFA8E7D3F8D810D3F8E0200C
:1023D0004FF48070186511402046FFF771FFA5E7A4
:1023E0002368C3F8509049462046FFF764FFA0E7F2
:1023F0002368C3F8508041462046FFF75DFF9BE706
:1024000023681F6539462046FFF757FF96E74FF4CC
:1024100000721A652046FFF751FF98E7D3F8D410F1
:10242000D3F8DC208020186511402046FFF747FFD5
:1024300096E74FF400521A652046FFF742FF98E7EF
:102440004FF400421A652046FFF73CFF9AE72368E5
:102450001E6531462046FFF738FFA5E72046FFF707
:1024600033FFAAE770B582B0002365E085685E009F
:102470000324B44025EA0405CC68B4402C438460AE
:10248000446824EA0C0C4C68C4F300149C4044EAF1
:102490000C04446061E0DD08083550F8256003F065
:1024A00007044FEA840C0F2404FA0CF426EA040E05
:1024B0000C6904FA0CF444EA0E0440F8254063E089
:1024C000052400E0002404FA0EF42C430CF1020C65
:1024D000574D45F82C40574CA568D44325EA0206D1
:1024E000D1F804C01CF4801F01D042EA0506514D0A
:1024F000AE60ED6804EA0506D1F804C01CF4001FC4
:1025000001D042EA05064B4DEE606D6804EA05060F
:10251000D1F804C01CF4003F01D042EA0506454D45
:102520006E602D682C404E6816F4803F01D042EA60
:102530000504404A146001330A6832FA03F474D087
:102540004FF0010C0CFA03FC1CEA0202F3D04C68B9
:1025500004F00304013C012C88D94C6804F0030406
:10256000032C0CD0C4685D004FF0030C0CFA05FC82
:1025700024EA0C0C8C68AC4044EA0C04C4604C683F
:1025800004F00304022C86D004684FEA430E4FF097
:10259000030C0CFA0EFC24EA0C0C4C6804F0030447
:1025A00004FA0EF444EA0C0404604C6814F4403F4E
:1025B000C1D0214C256E45F001052566246E04F03E
:1025C00001040194019C4FEA930C0CF10205184C94
:1025D00054F8255003F003044FEA840E0F2404FA44
:1025E0000EF425EA0405B0F1904F3FF46BAF134CA5
:1025F000A04212D004F58064A04210D004F580649B
:10260000A0420ED004F58064A0420CD004F5806492
:10261000A0423FF455AF062455E7012453E70224B6
:1026200051E703244FE704244DE702B070BD00BF1B
:102630000000014000040140001002400004004876
:102640000AB18161704781627047436901EA030200
:1026500021EA030141EA024181617047002836D135
:102660003E4B1B6803F4C063B3F5806F08D03B4A50
:10267000D2F8803023F48073C2F880300020704795
:10268000364AD2F8803023F48073C2F88030136861
:1026900023F4C06343F400731360314B1B68322290
:1026A00002FB03F32F4AA2FB03239B0C013300E040
:1026B000013B2A4A526912F4806F01D0002BF7D1F6
:1026C000264B5B6913F4806F44D100207047B0F54E
:1026D000007F08D0214A136823F4C06343F4806369
:1026E0001360002070471D4B1B6803F4C063B3F5F3
:1026F000806F08D0194AD2F8803043F48073C2F852
:10270000803000207047154AD2F8803043F480733F
:10271000C2F88030136823F4C06343F4007313607D
:102720000F4B1B68322202FB03F30E4AA2FB03236A
:102730009B0C013300E0013B084A526912F4806FA0
:1027400001D0002BF7D1054B5B6913F4806F03D1E7
:10275000002070470320704703207047007000403E
:102760000400002083DE1B43024A936843F4804345
:102770009360704700700040124BDA6802F0030269
:10278000D868C0F30310431C032A11D00E48B0FBD5
:10279000F3F00C4BDB68C3F3062303FB00F0094B9B
:1027A000DB68C3F3416301335B00B0FBF3F07047B8
:1027B0000648B0FBF3F0034BDB68C3F3062303FBCF
:1027C00000F0ECE7001002400024F400006CDC0292
:1027D000002800F0548270B582B00446036813F0FC
:1027E000010F37D0A44A936803F00C03D26802F0BB
:1027F00003020C2B23D0082B23D06368B3F5803F52
:102800004ED0B3F5A02F51D09B4B1A6822F48032E2
:102810001A601A6822F480221A606368002B52D072
:10282000FFF760FA0546944B1B6813F4003F11D183
:10283000FFF758FA401B6428F5D9032028E2032A41
:10284000D9D18D4B1B6813F4003F03D06368002B74
:1028500000F01782236813F0020F5DD0864A936858
:1028600003F00C03D26802F003020C2B3AD0042BC5
:102870003AD0E368002B75D07F4A136843F4807325
:102880001360FFF72FFA05467B4B1B6813F4806F2C
:102890005FD1FFF727FA401B0228F5D90320F7E1A3
:1028A000754A136843F480331360B6E703F180433D
:1028B000A3F53C331A6842F480221A601A6842F485
:1028C00080321A60A9E7FFF70DFA05466A4B1B68CC
:1028D00013F4003FBED0FFF705FA401B6428F5D97A
:1028E0000320D5E1022AC2D1634B1B6813F4806F29
:1028F00003D0E368002B00F0C6815F4A536823F0E1
:10290000FE43216943EA016353605C4B1868FFF79B
:10291000A5F9002840F0B981236813F0080F4CD0C6
:1029200063699BB3544AD2F8943043F00103C2F870
:102930009430FFF7D7F905464F4BD3F8943013F096
:10294000020F3AD1FFF7CEF9401B0228F4D9032039
:102950009EE1494A536823F0FE43216943EA01633B
:102960005360D9E7444A136823F480731360FFF778
:10297000B9F90546404B1B6813F4806FCCD0FFF7C4
:10298000B1F9401B0228F5D9032081E13A4AD2F877
:10299000943023F00103C2F89430FFF7A3F9054601
:1029A000354BD3F8943013F0020F06D0FFF79AF9A5
:1029B000401B0228F4D903206AE1236813F0040FB6
:1029C00000F081802C4B9B6D13F0805F36D12A4B39
:1029D0009A6D42F080529A659B6D03F0805301938B
:1029E000019B0125264B1B6813F4807F28D0A36828
:1029F000012B39D0052B45D01F4BD3F8902022F066
:102A00000102C3F89020D3F8902022F00402C3F80A
:102A10009020A368002B43D0FFF764F90646164BBD
:102A2000D3F8903013F0020F4CD1FFF75BF9801B05
:102A300041F288339842F2D9032029E10025D1E7F9
:102A40000F4A136843F480731360FFF74BF906468F
:102A50000B4B1B6813F4807FC9D1FFF743F9801B30
:102A60000228F5D9032013E1034AD2F8903043F04D
:102A70000103C2F89030CCE7001002400C000020A7
:102A8000007000408A4BD3F8902042F00402C3F853
:102A90009020D3F8902042F00102C3F89020B8E7CC
:102AA000FFF720F90646824BD3F8903013F0020F5F
:102AB00008D0FFF717F9801B41F288339842F2D90A
:102AC0000320E5E0E5B9236813F0200F35D0A369B2
:102AD000E3B1774AD2F8983043F00103C2F8983056
:102AE000FFF700F90546724BD3F8983013F0020F48
:102AF00023D1FFF7F7F8401B0228F4D90320C7E0E1
:102B00006B4A936D23F080539365DCE7684AD2F8F3
:102B1000983023F00103C2F89830FFF7E3F8054638
:102B2000634BD3F8983013F0020F06D0FFF7DAF8B2
:102B3000401B0228F4D90320AAE0E369002B00F02F
:102B4000A6805B4A926802F00C020C2A69D0022B24
:102B50001DD0574B1A6822F080721A60DA6822F092
:102B60000302DA60DA6822F0887222F48032DA60D6
:102B7000FFF7B8F804464E4B1B6813F0007F4ED0A9
:102B8000FFF7B0F8001B0228F5D9032080E0484A7F
:102B9000136823F080731360FFF7A4F80546444BD5
:102BA0001B6813F0007F06D0FFF79CF8401B02283B
:102BB000F5D903206CE03E4AD3683E491940236AA8
:102BC000606A013843EA0013A06A43EA0023206BDD
:102BD0004008013843EA4053606B4008013843EA3B
:102BE0004063E06A43EAC0630B43D360136843F079
:102BF00080731360D36843F08073D360FFF772F87B
:102C000004462B4B1B6813F0007F06D1FFF76AF8D0
:102C1000001B0228F5D903203AE0002038E000200C
:102C200036E0012B36D0224BDB6803F00301226A29
:102C3000914231D103F0F002616A0139B2EB011F18
:102C40002CD103F4FE42A16AB2EB012F28D103F08C
:102C50007842E16AB2EBC16F24D103F4C001226B68
:102C60005208013AB1EB425F1ED103F0C063626BC0
:102C70005208013AB3EB426F18D1002008E001205E
:102C80007047012004E0012002E0012000E0002064
:102C900002B070BD0120FBE70120F9E70120F7E752
:102CA0000120F5E70120F3E70120F1E70120EFE73C
:102CB000001002400C809F011E4B9B6803F00C0328
:102CC000042B33D01B4B9B6803F00C03082B2FD035
:102CD000184B9B6803F00C030C2B01D000207047AD
:102CE000144BDA6802F00302D868C0F30310431CE7
:102CF000032A11D01048B0FBF3F00E4BDB68C3F38E
:102D0000062303FB00F00B4BDB68C3F34163013385
:102D10005B00B0FBF3F070470848B0FBF3F0054BE5
:102D2000DB68C3F3062303FB00F0ECE702487047BF
:102D300002487047001002400024F400006CDC02DE
:102D4000002800F0E680F8B50C460546744B1B6879
:102D500003F00F038B420BD2714A136823F00F0369
:102D60000B431360136803F00F038B4240F0D380D2
:102D70002E6816F001065FD06B68032B2FD0022B54
:102D80004DD0684B1B6813F4806F00F0C680FFF7CE
:102D900093FF654B98424DD9624A936823F0F00344
:102DA00043F08003936080265E4A936823F0030318
:102DB00069680B439360FEF795FF0746594B9B6884
:102DC00003F00C036A68B3EB820F35D0FEF78AFF7D
:102DD000C01B41F288339842F0D9032078E0514B70
:102DE0001B6813F0007F01D1012071E0FFF7C4FCE4
:102DF0004D4B98421AD94B4B9B6813F0F00F05D0FE
:102E00002E6816F00206CFD0AB688BB9454A93689E
:102E100023F0F00343F0800393608026C4E7414B26
:102E20001B6813F4003FB2D1012051E00026BBE73C
:102E30000026B9E70026B7E72B6813F0020F48D049
:102E400013F0040F04D0374A936843F4E0639360AF
:102E50002B6813F0080F06D0324A936823F47C5392
:102E600043F4E06393602F4A936823F0F003A9686A
:102E70000B4393602A4B1B6803F00F03A34230D827
:102E80002B6813F0040F06D0264A936823F4E063FE
:102E9000E9680B4393602B6813F0080F07D0214AB1
:102EA000936823F46053296943EAC1039360FFF7F1
:102EB00003FF1C4B9B68C3F303131C4AD35C03F052
:102EC0001F03D8401A4B18601A4B1868FEF7C6FE4D
:102ED000F8BD802ECED1134A936823F0F00393609F
:102EE000C8E70F4A136823F00F0323431360FEF76C
:102EF000F9FE06460A4B1B6803F00F03A342BFD03E
:102F0000FEF7F0FE801B41F288339842F2D903208D
:102F1000DEE7012070470120DAE70120D8E700BF93
:102F2000002002400010024000B4C404083600082B
:102F3000040000200C000020F0B583B004460368B4
:102F400013F4002F6ED0354B9B6D13F0805F1ED1B4
:102F5000324B9A6D42F080529A659B6D03F080531C
:102F60000193019B01262E4A136843F4807313607A
:102F7000FEF7B8FE05462A4B1B6813F4807F08D184
:102F8000FEF7B0FE401B0228F5D9032502E000261B
:102F9000E9E7002545BB214BD3F8903013F440738B
:102FA00015D0226D9A4212D01C4AD2F8903023F4E8
:102FB0004073D2F8901041F48031C2F89010D2F8EA
:102FC000901021F48031C2F89010C2F8903013F0C4
:102FD000010F10D145B9114AD2F8903023F4407353
:102FE000216D0B43C2F89030EEB10C4A936D23F083
:102FF0008053936517E0FEF775FE0746074BD3F83D
:10300000903013F0020FE5D1FEF76CFEC01B41F2C9
:1030100088339842F2D90325DCE700BF0010024054
:10302000007000400025236813F0010F08D09F4A6C
:10303000D2F8883023F0030361680B43C2F888306C
:10304000236813F0020F08D0984AD2F8883023F092
:103050000C03A1680B43C2F88830236813F0040FF7
:1030600008D0924AD2F8883023F03003E1680B434D
:10307000C2F88830236813F0080F08D08B4AD2F8C2
:10308000883023F0C00321690B43C2F888302368DD
:1030900013F0100F08D0854AD2F8883023F440731B
:1030A00061690B43C2F88830236813F0200F08D001
:1030B0007E4AD2F8883023F44063A1690B43C2F8FA
:1030C0008830236813F0400F08D0784AD2F888304F
:1030D00023F44053E1690B43C2F88830236813F0AE
:1030E000800F08D0714AD2F8883023F44043216A17
:1030F0000B43C2F88830236813F4807F08D06B4AF2
:10310000D2F8883023F44033616A0B43C2F8883028
:10311000236813F4003F08D0644AD2F89C3023F0AF
:103120000303A16A0B43C2F89C30236813F4007FA9
:1031300008D05E4AD2F8883023F44023E16A0B437A
:10314000C2F88830236813F4806F0CD0574AD2F845
:10315000883023F44013216B0B43C2F88830236B73
:10316000B3F5801F79D0236813F4006F0CD04F4A59
:10317000D2F8883023F44003616B0B43C2F88830E7
:10318000636BB3F5800F6DD0236813F4805F0CD0B0
:10319000464AD2F8883023F04073A16B0B43C2F843
:1031A0008830A36BB3F1807F61D0236813F4005F94
:1031B0000CD03E4AD2F8883023F04063E16B0B43D9
:1031C000C2F88830E36BB3F1006F55D0236813F475
:1031D000804F0CD0354AD2F8883023F04063216C00
:1031E0000B43C2F88830236CB3F1006F49D02368D9
:1031F00013F4004F0CD02D4AD2F8883023F04053FE
:10320000616C0B43C2F88830636CB3F1805F3DD0D2
:10321000236813F4803F0CD0244AD2F8883023F07E
:103220004043A16C0B43C2F88830A36CB3F1804FCC
:1032300031D0236813F4802F0CD01C4AD2F89C3074
:1032400023F44013E16C0B43C2F89C30E36CB3F5FC
:10325000001F25D0284603B0F0BDD36843F4801387
:10326000D36080E7D36843F48013D3608CE7D368DE
:1032700043F48013D36098E7D36843F48013D3609A
:10328000A4E7D36843F48013D360B0E7D36843F472
:103290008033D360BCE7D36843F48033D360C8E79E
:1032A000D36843F48013D360D4E700BF001002401A
:1032B00008B5062000F080F80120FEF79DFC00BF55
:1032C000014B1868704700BF1000002070B50D4E0C
:1032D0000D4D761BB61006D0002455F8043B013482
:1032E0009847A642F9D1094E094D761B00F078F9AE
:1032F000B61006D0002455F8043B01349847A64286
:10330000F9D170BD48370008483700085437000825
:1033100048370008830730B548D0541E002A3FD0F4
:10332000CAB2034601E0013C3AD303F8012B9D07E2
:10333000F9D1032C2DD9CDB245EA05250F2C45EA4C
:10334000054536D9A4F1100222F00F0C03F1200E2E
:10335000E6444FEA121C03F1100242E9045542E927
:10336000025510327245F8D10CF1010214F00C0F25
:1033700003EB021204F00F0C13D0ACF1040323F0A2
:1033800003030433134442F8045B9342FBD10CF073
:1033900003042CB1CAB21C4403F8012B9C42FBD19C
:1033A00030BD64461346002CF4D1F9E703461446B9
:1033B000BFE71A46A446E0E738B5154B1F281D683D
:1033C00020D8D5F8DC22044662B152F820304BB147
:1033D000012B15D0591C0FD0002542F820509847DA
:1033E000284638BD284600F02BF8224601462846DC
:1033F000BDE8384000F00EB816232B60012038BD20
:10340000002038BD16232B604FF0FF3038BD00BFC1
:103410001000002070B50C46084D034600262046DB
:1034200011461C462E60FEF7DFFB431C00D070BD2A
:103430002B68002BFBD0236070BD00BF040600206A
:10344000FEF7D0BB80EA0102844612F0030F4FD191
:1034500011F0030F32D14DF8044D11F0040F51F863
:10346000043B0BD0A3F101329A4312F0803F04BF1A
:103470004CF8043B51F8043B16D100BF51F8044B03
:10348000A3F101329A4312F0803FA4F101320BD133
:103490004CF8043BA24312F0803F04BF51F8043BB8
:1034A0004CF8044BEAD023460CF8013B13F0FF0F15
:1034B0004FEA3323F8D15DF8044B704711F0010F48
:1034C00006D011F8012B0CF8012B002A08BF704719
:1034D00011F0020FBFD031F8022B12F0FF0F16BF10
:1034E0002CF8022B8CF8002012F47F4FB3D17047D8
:1034F00011F8012B0CF8012B002AF9D1704700BFFD
:10350000024B13B1024800F005B8704700000000FC
:1035100021350008002301461A46184600F01AB863
:1035200038B5084B084D5B1B9C1007D0043B1D446D
:10353000013C55F804399847002CF9D1BDE83840D2
:1035400000F054B85837000854370008704700BFDF
:10355000704700BF2DE9F047DFF87CA00646DAF897
:10356000000098460F469146FFF7F0FF1B4B1B6883
:10357000D3F8484124B365681F2D26DC5EB96B1C67
:103580000235DAF80000636044F82570FFF7E0FFC9
:103590000020BDE8F08704EB85010123C1F8889085
:1035A000D4F88821AB401A43022EC4F88821C1F810
:1035B0000881E4D1D4F88C211343C4F88C31DEE7C0
:1035C00003F5A674C3F84841D5E7DAF80000FFF721
:1035D000BFFF4FF0FF30DCE7400400202836000832
:1035E000F8B500BFF8BC08BC9E467047F8B500BFF0
:0835F000F8BC08BC9E467047C0
:1035F8004C454431000000004C45443200000000B6
:10360800000000000000000001020304060708098A
:103618000001020304050607080C101418203040A6
:043628001800002066
:10362C0008B10181B0B000840000000008B1018134
:10363C00B0B000840000000008B10181B0B000847B
:04364C00000000007A
:10365000D0CBFF7F0100000060CCFF7FB0A90280CB
:10366000F4CCFF7FB0B0A88044CDFF7F0100000004
:1036700050CDFF7FB0B0AA8084CDFF7FAE71B28005
:1036800048CEFF7F0100000044CEFF7FAB3F388073
:10369000A4CEFF7F01000000ACCEFF7FB0B0AA80B7
:1036A000E8CEFF7F0100000094CFFF7FAA0DB2801B
:1036B00010D0FF7FB0AF0880B0D2FF7F01000000C4
:1036C000B4D2FF7FAD3F028030D5FF7F0100000004
:1036D0000CD7FF7F0084048020D7FF7F010000000B
:1036E0001CD7FF7FB0AD0480C0D9FF7FB0A8038096
:1036F000E4D9FF7F44FFFF7FE8D9FF7F48FFFF7FCA
:10370000F4D9FF7F0100000018DEFF7F20FFFF7F5C
:1037100034DEFF7FB0B0A88044DEFF7F00840A80E3
:1037200068DEFF7F01000000C4DEFF7FB0B0AA802A
:1037300050DFFF7F010000006CDFFF7FB0B0A8808A
:08374000D8DFFF7F010000004B
:0C37480001350008050200088116000889
:04375400E101000887
:10375800112233000024F4000100000010000000D2
:1037680018000020000000000000000004030020F2
:103778006C030020D40300200000000000000000BB
:103788000000000000000000000000000000000031
:103798000000000000000000000000000000000021
:1037A8000000000000000000000000000000000011
:1037B8000000000000000000000000000000000001
:1037C80000000000000000000000000000000000F1
:1037D80000000000000000000000000000000000E1
:1037E80000000000000000000000000000000000D1
:1037F80000000000000000000000000000000000C1
:1038080000000000000000000000000000000000B0
:1038180001000000000000000E33CDAB34126DE64D
:10382800ECDE05000B0000000000000000000000B6
:103838000000000000000000000000000000000080
:103848000000000000000000000000000000000070
:103858000000000000000000000000000000000060
:103868000000000000000000000000000000000050
:043B98000006002003
:0400000508001C09CA
:00000001FF
